:020000040800F2
:1000000078050020CD000008F51A0008B11200089C
:1000100000000000000000000000000000000000E0
:10002000000000000000000000000000651D000846
:100030000000000000000000F71A0008671D00081B
:10004000DF00000800000000DF000008DF000008FB
:10005000DF000008DF000008DF000008DF00000804
:1000600000000000DF000008DF000008DF000008DB
:10007000DF000008DF000008DF00000800000000CB
:10008000DF000008DF00000800000000DF000008BB
:10009000DF000008DF000008DF000008DF000008C4
:1000A000DF000008DF000008DF0000080D24000862
:1000B000DF0000080448854600F090F8004800473B
:1000C000AD2A0008C046C046780500200448804795
:1000D00004480047FEE7FEE7FEE7FEE7FEE7FEE72F
:1000E000DD1D0008B500000830B50B4601460020B4
:1000F0002022012409E00D46D5409D4205D31D462E
:100100009540491B2546954040191546521E002D25
:10011000F1DC30BDF0B51FB40646002082B00546C4
:100120004024019100901BE0019922460F46304681
:1001300000F020F8049A059B801A994110D31046CC
:100140001946224600F039F8361A8F4101972246A7
:1001500001200021009F00F030F838184D41009038
:100160002046641E0028DFDC019B009829463246A9
:1001700007B0F0BD10B5202A04DB0846203AD04075
:10018000002110BD0B46D340D0402024A21A91403C
:100190000843194610BDD2B201E00270401C491E4E
:1001A000FBD270470022F6E710B513460A46044614
:1001B0001946FFF7F0FF204610BD10B5202A04DBDA
:1001C0000146203A9140002010BD914020239C1A06
:1001D0000346E3401943904010BD0000064C012542
:1001E000064E05E0E36807CC2B430C3C98471034DF
:1001F000B442F7D3FFF762FF842B0008A42B00085A
:1002000072B6FEE7F8B5002303240125BAE02E46B6
:100210009E40B44632407CD00E79B607B60F012E10
:1002200001D0022E17D186682746B6465E00B74039
:1002300000967646BE43B646CF68009EB7407646E7
:100240003743876046686746BE430F79FF06FF0F56
:100250009F40374347600E79F643B6070ED0C66815
:100260002746B4465E00B646B7406646BE43B4462F
:100270008F687646B74066463743C7600E79B60743
:10028000B60F022E14D1DE08B60036180096366A74
:100290005F07B446FE0E0F27B646B7406646BE431C
:1002A000B4460F697646B74066463743009E3762CC
:1002B00006682746B4465E00B646B7406646BE436B
:1002C0000F79B446BF07BF0F7646B740664637433F
:1002D00007604E68B603B60F53D02D4FBE692E434C
:1002E000BE61BE699F08F607F60F2A4EBF00BE1911
:1002F0000096B6680F27B4469E07360FB646B7403D
:100300006646BE430927FF06B446B84202D100271D
:1003100010E036E0204FB84201D101270AE01F4F1C
:10032000B84201D1022705E01D4FB84201D1032791
:1003300000E005277646B74066463743009EB76023
:10034000184EB6684F689643FF0200D51643154F06
:10035000BE60FE684F689643BF0200D51643114F3A
:10036000FE607E684F689643BF0300D516430D4F6D
:100370007E603E684F689643FF0300D51643094AE6
:1003800016605B1C0A681646DE4000D03FE7F8BDE9
:10039000001002400000014000040048000800482E
:1003A000000C0048000401400069084000D0012012
:1003B0007047002A01D08161704781627047000058
:1003C00001488068704700000800002002488168EA
:1003D00002788918816070470800002010B506482F
:1003E0000168102211430160032000F007F800F0BB
:1003F00027F8002010BD00000020024070B5044620
:100400000D4D7D202978C000FFF76EFE01460B4898
:100410000068FFF769FE00F0E1FC002809D1042C18
:1004200007D200222146401E00F02AF800206C600E
:1004300070BD012070BD00000800002014000020E5
:1004400008B5084881690122114381618169114021
:100450000091C26901040A43C261C069084000906A
:1004600008BD000000100240002805DBC106C90ECF
:1004700001208840014908607047000000E100E069
:1004800010B502F067F810BDF8B505460068354CA8
:10049000C00352D5E0690026C00007D4E1692004FA
:1004A0000143E161E1690140012600912E480168A4
:1004B000C90510D40168821511430160FFF780FF60
:1004C000074604E0FFF77CFFC01B642824D82648B9
:1004D0000068C005F6D5206A03273F02384020D0C7
:1004E0006968394081421CD0206A226AB8430121E0
:1004F00009040A432262226A8A4322622062C007F8
:100500000FD0FFF75DFF009008E0FFF759FF00995B
:10051000411A1648814201D90320F8BD206A80079C
:10052000F3D5206A6968B84308432062002E04D0DE
:10053000E169012000078143E1612878C00705D007
:10054000206BA96880088000084320632878800613
:1005500005D5206B10218843E968084320630020FB
:10056000F8BD000000100240007000408813000039
:10057000F8B50F46060059D03A4D2868C007C00F9D
:10058000B84209D2286840084000384328602868EB
:10059000C007C00FB84249D13068334C81070CD531
:1005A000400704D56068072109020843606060685D
:1005B000F0218843B168084360603078C00726D0D6
:1005C000706801280ED0216802280ED08907002902
:1005D0002CDA61688908890001436160FFF7F0FE49
:1005E00000900DE021688903F1E78901EFE7FFF74B
:1005F000E7FE0099411A1D48814201D90320F8BD48
:1006000060680C210840716889008842EFD1286831
:10061000C007C00FB8420BD92868400840003843D3
:1006200028602868C007C00FB84201D00120F8BD7B
:100630003078400706D56068072109028843F168D1
:100640000843606000F028F86168094A0906090F4C
:10065000515CC840074908600320FFF7CFFE002027
:10066000F8BD000000200240001002408813000086
:10067000142B00081400002004480549006849684C
:10068000044A4905490F515CC840704714000020D6
:1006900000100240242B000810B5114A51680C20AC
:1006A0000B4603400F48042B02D0082B01D00E4804
:1006B00010BD8B020D4C1B0FE45CD26A0B4B120772
:1006C000120F10339A5CC90305D500231946FFF7B2
:1006D00021FD214601E02046054901F023FF10BD20
:1006E00000100240002D310100127A00F42A0008A7
:1006F00000093D00FEB5040070D02078DC4DC00735
:100700004AD068680007800F012807D06868000792
:10071000800F022809D16868C00306D528688003C5
:100720003AD560680028E7D036E06168012914D026
:1007300001208004002901D0052914D02A68012154
:1007400009048A432A602968814329606068002877
:1007500016D0FFF735FE06460EE028680121090491
:1007600008432860F2E7296801432960F5E7FFF7AD
:1007700027FE801B64286ED828688003F7D50BE01D
:10078000FFF71EFE064604E0FFF71AFE801B6428F2
:10079000F1D828688003F7D4207801268007002844
:1007A0003CDA68680007800F07D068680007800F90
:1007B000022809D16868C00306D42868800716D5C6
:1007C000E06801280AD112E0E0680028286816D005
:1007D00030432860FFF7F4FD074605E043E1FFF7EB
:1007E000EFFDC01B0228C6D828688007F7D5286807
:1007F000F82188432169C900084328600EE04008B9
:1008000040002860FFF7DCFD074604E0FFF7D8FD55
:10081000C01B0228AFD828688007F7D420780007CB
:1008200022D5E0690028686A0ED030436862FFF77D
:10083000C7FD074604E0FFF7C3FDC01B02289AD896
:10084000686A8007F7D50FE0400840006862FFF74C
:10085000B7FD074605E09DE0FFF7B2FDC01B02288B
:1008600089D8686A8007F7D42078042740070028D1
:1008700060DA00200190E869C00008D4E969B80690
:100880000143E961E9690140012000910190794843
:100890000168C90511D40168821511430160FFF791
:1008A0008FFD009005E0FFF78BFD0099401A64284A
:1008B00070D870480068C005F5D5A06801280AD036
:1008C000002801D0052810D0286A4008400028627E
:1008D000286AB84301E0286A30432862A0680028EB
:1008E00012D0FFF76DFD00900AE0286A38432862B5
:1008F000F1E7FFF765FD0099411A5F48814249D849
:10090000286A8007F5D50DE0FFF75AFD009006E054
:10091000FFF756FD0099411A574881423AD8286A94
:100920008007F5D40198002804D0E9690120000768
:100930008143E9612078C00635D5606901280CD073
:10094000401D686B23D038436863686B40084000E3
:100950006863FFF735FD064622E0686B384368633D
:10096000686B30436863FFF72BFD064604E0FFF732
:1009700027FD801B02285BD8686B8007F7D5686B62
:10098000F8218843A169C900084368630BE0B843B4
:100990006863F4E74CE0FFF713FD801B022847D89B
:1009A000686B8007F7D4206A00285ED06968090761
:1009B000890F022942D0012636060228286805D070
:1009C000B0432860FFF7FCFC044633E0B0432860E6
:1009D000FFF7F6FC074604E0FFF7F2FCC01B022815
:1009E00026D828688001F7D4E86AE16A0009000186
:1009F0000843E862616AA06A084369683D221204FC
:100A0000914308436860286830432860FFF7D8FCAA
:100A1000044604E0FFF7D4FC001B022808D828682D
:100A20008001F7D521E0FFF7CBFC001B022801D99C
:100A30000320FEBD28688001F5D416E00128F8D017
:100A40006868E96A01221204636A02409A420AD184
:100A50000907E26A090F914205D10F218904084074
:100A6000A16A884201D00120FEBD0020FEBD000029
:100A7000001002400070004088130000F8B5040028
:100A80000CD0606A002500280AD0256165612646E1
:100A90004036A562707F002808D00BE00120F8BD29
:100AA0006168C81FFD38F2D0E561F0E73577204670
:100AB00000F05CF8022272772068016840239943B5
:100AC00001600723E1681B02994201D9002001E07F
:100AD000012000030F273F02B94202D0994200D003
:100AE000A562FF236168053319402127A368BF026F
:100AF0003B40194323691340227D1943D207D20F8B
:100B000011430123A2695B021A401143E2693823B1
:100B10001A401143226A80231A401143A26A9B01A2
:100B20001A40114322681160A1690422090C114086
:100B3000626A10231A401143626B08231A40114362
:100B40000F23E2681B021A401143012212031040D6
:100B50000143206841602068C16952109143C1611E
:100B60002566012070770020F8BD000010B586B022
:100B7000044614216846FFF715FB11492068884296
:100B80001CD11048C26909140A43C261C2690A40F3
:100B90000592426909010A43426140690840059093
:100BA00007204003009002200021019003200291C1
:100BB0000491039069460448FFF724FB06B010BD7A
:100BC000003800400010024000040048FFB5044611
:100BD00083B00120254640350090287F00271E461F
:100BE00001280FD001202877FFF7EAFB0190687FEA
:100BF000616801280DD0CA1FFD3A08D1A1680029FB
:100C000005D102E0022007B0F0BD042801D0022780
:100C1000D4E0049800286FD005980028FBD0002E5F
:100C2000F9D0687F042801D005206877002020666D
:100C300005992164EE80AE800499A163E687A687BA
:100C4000E064206507210120E268090200038A426E
:100C50002268536801D9834300E00343536020684E
:100C60000268520603D4026840231A430260E06817
:100C70008842606848D9002801D0012E3DD1A06B80
:100C800001882068C160A06B801CA063E08F401EBB
:100C9000E08732E020688168890710D5E18F00295C
:100CA0000DD0009901290AD1A16B0988C160A06B00
:100CB000801CA063E08F401EE08700200090206829
:100CC0008168C9070DD0E98800290AD0C068216C65
:100CD0000880206C801C2064E888401EE880012089
:100CE0000090FFF76DFB0199401A0C99884204D3DC
:100CF000481C02D003275FE05CE0E08F0028C9D1E8
:100D0000E8880028C6D148E0002801D0012E3ED155
:100D1000A06B216800780873A06B401CA063E08F73
:100D2000401EE08733E020688168890710D5E18F95
:100D300000290DD0009901290AD1A16B097801730E
:100D4000A06B401CA063E08F401EE0870020009055
:100D500020688168C9070DD0E98800290AD0007B86
:100D6000216C0870206C401C2064E888401EE880DC
:100D700001200090FFF724FB01460198091A0C9806
:100D8000814202D3401C02D0B4E70028B2D0E08FE9
:100D90000028C8D1E8880028C5D12046019A0C99BE
:100DA00000F0F2FE002802D0012720202066206EED
:100DB000002801D0012701E0012068770020287772
:100DC000384620E7042204490428086902D09043E9
:100DD000086170471043FBE700E000E0094910B5E7
:100DE000401E884201D9012010BD074C60610321DB
:100DF000081F01F0AFFB0020A06107202061002048
:100E000010BD0000FFFFFF0000E000E030B503462A
:100E100020331A7F012A26D001221A770325CA68B7
:100E20002D02AA438D6800242A430125AD02AA435E
:100E30004D6800682A430125ED02AA430D682A4344
:100E400001252D03AA430D692A4301256D03AA43F9
:100E50004D69C9692A430125AD03AA430A43426487
:100E60001C77002030BD022030BD70B5040005D0D5
:100E700025462035687F002802D006E0012070BD9D
:100E800000202877204600F015F802206877211D01
:100E9000206800F0A5FF01204034A071A877E87712
:100EA00020706070A070E070207160716877002021
:100EB00070BD000010B586B0044614216846FFF7E7
:100EC00071F91149206888421BD1104882690121BB
:100ED00049040A43826182690A40059242694900D5
:100EE0000A43426140690840059020200090022199
:100EF0000020019102900491039069460448FFF795
:100F000081F906B010BD000000440140001002400D
:100F10000004004870B586B0044614216846FFF707
:100F200041F916492068884226D1154842690121B5
:100F300049040A43426142690A40059242694900F4
:100F40000A4342614069402608400096059005200A
:100F50000024049002250920029401950394694617
:100F6000C006FFF74FF902940195694605480096BF
:100F700004950394FFF746F906B070BD00440140A4
:100F8000001002400004004870B5054620352B7F54
:100F90000024012B0ED001232B77002A0CD0042A29
:100FA0000ED0082A10D00C2A12D001240020287755
:100FB000204670BD022070BD006800F055FFF5E7C7
:100FC000006800F095FFF1E7006800F0D1FFEDE761
:100FD000006801F00FF8E9E770B5040005D0254678
:100FE0002035687F002802D006E0012070BD002077
:100FF0002877204600F014F802206877211D206829
:1010000000F0EEFE01204034A071A877E877207050
:101010006070A070E070207160716877002070BD12
:10102000704710B5040003D0E06F002802D007E03D
:10103000012010BD002178200155204600F026F83F
:101040002420E067206801684908490001602046C3
:1010500001F0FEF80128ECD0606A002802D020469A
:1010600000F0FEFF206841680122D20291434160F6
:10107000206881680822914381602068016801220C
:1010800011430160204601F051F810BD10B586B043
:10109000044614216846FFF785F8164920688842FF
:1010A00026D115488269012189030A438261826938
:1010B0000A4005924269C9000A43426140690840FA
:1010C000059003204002009002200190012103209E
:1010D00003900291049109206946C006FFF792F837
:1010E000002203211B20FFF7CBF91B20FFF7BCF9DF
:1010F00006B010BD0038014000100240FFB50746A1
:1011000004468037386885B00E46202802D0022079
:1011100009B0F0BD002E0CD00798002809D001209E
:10112000A1680003814206D12069002803D1F0079D
:1011300001D00120ECE70020786022213960206690
:10114000FFF73EF904902546403507982883079815
:1011500068830120A1680003FF22814204D1236932
:10116000002B09D1214A07E0002901D0002203E029
:101170002369002B00D07F22AA8392B2029281427F
:1011800002D12069002802D00196002601E000204B
:101190000190D0B20390688B002822D0089800906C
:1011A000002220212046049B01F0EAF8002803D009
:1011B000202038600320ABE7019800282068808C4D
:1011C0000AD003990840019908700198401C0190C9
:1011D000688B401E6883DEE7029908403080B61CA9
:1011E000F6E720203860002092E70000FF010000B1
:1011F000FFB50446C06F83B017460D46202802D0C5
:10120000022007B0F0BD002D0BD0002F09D0012027
:10121000A1680003814206D12069002803D1E807B4
:1012200001D00120EDE70021842001512120E06759
:10123000FFF7C6F8264640360190378277820120B4
:10124000A1680003814202D12069002802D02F4604
:10125000002511E000270FE000228021204601F048
:101260008FF8002815D1002F17D02168387808850D
:101270007F1C708A401E7082708A019B002806982D
:101280000090E9D100224021204601F079F80028A1
:101290000AD02020E0670320B3E728882168C00532
:1012A000C00D0885AD1CE4E72020E0670020A8E71A
:1012B000FEE7000070B5FF240F4D013400222146E7
:1012C0002846FFF776F800F02BFC00226100284644
:1012D000FFF76FF8142001F0C1FB012221462846D8
:1012E000FFF767F8142001F0B9FB002221462846D9
:1012F000FFF75FF870BD00000004004810B511480A
:1013000086B04269012189040A43426140690E4C5A
:1013100008400590032000020090012001900290F7
:101320000320039069462046FEF76CFF012251021C
:101330002046FFF73EF8012211022046FFF739F858
:1013400006B010BD001002400004004870B5FF2434
:101350000F4D0134002221462846FFF72AF800F0FD
:10136000DFFB012251022846FFF723F8142001F089
:1013700075FB012221462846FFF71BF8142001F0D7
:101380006DFB002221462846FFF713F870BD0000D0
:1013900000040048F1B5002400F0AEFB0A2001F083
:1013A0005DFB0025FF26154F0136002231463846E9
:1013B000FEF7FFFF142001F051FB012231463846B1
:1013C000FEF7F7FF6006040E012149023846FEF7DA
:1013D000EBFF002801D0641CE4B2142001F03EFBB6
:1013E0006D1CEDB2082DE0D30098002803D0FFF764
:1013F00061FF2046F8BDFFF7A9FFFAE700040048A7
:10140000F8B5054600F08CFB0A2001F027FBFF260B
:10141000154F0136002231463846FEF7CAFF002438
:10142000E80901D0012200E00022012149023846EA
:10143000FEF7BFFF6806050E142001F00FFB012226
:1014400031463846FEF7B5FF142001F007FB0022B5
:1014500031463846FEF7ADFF142001F0FFFA641C58
:10146000E4B2082CDCD3F8BD0004004870B500F0ED
:1014700057FB01220E4D540221462846FEF799FFE4
:101480000122160231462846FEF793FF142001F090
:10149000E5FA002221462846FEF78BFF142001F0D2
:1014A000DDFA002231462846FEF783FF70BD0000BA
:1014B0000004004870B500F033FBFF240E4D0134EA
:1014C000002221462846FEF774FF660000223146BE
:1014D0002846FEF76EFF142001F0C0FA01222146D3
:1014E0002846FEF766FF142001F0B8FA01223146C3
:1014F0002846FEF75EFF70BD00040048F8B50024E2
:1015000000F0FAFA0122144D560231462846FEF741
:1015100050FF142001F0A2FA012217023946284692
:10152000FEF747FF142001F099FA07E0641CE4B2CB
:10153000FA2C03D9FFF7BEFF0120F8BD314628463B
:10154000FEF732FF0028F1D1002239462846FEF787
:1015500030FF0020F8BD00000004004810B5054928
:10156000002000F033F801214902052000F02EF898
:1015700010BD00002745000070B50446FFF776FF58
:101580008020FFF73DFFFFF7B9FF00280FD120466D
:10159000FFF736FFFFF7B2FF002808D1FFF766FF1D
:1015A0008120FFF72DFFFFF7A9FF002801D00020C1
:1015B00070BD0120FFF7EEFE04020020FFF7EAFEF7
:1015C0000546FFF777FF2046284370BD70B50646F5
:1015D0000C0ACDB2FFF74AFF8020FFF711FFFFF79B
:1015E0008DFF002814D13046FFF70AFFFFF786FF72
:1015F00000280DD12046FFF703FFFFF77FFF0028EB
:1016000006D12846FFF7FCFEFFF778FF002801D03F
:10161000002070BDFFF74EFF022001F011FA0120FB
:1016200070BD0000F0B5A1B000201C901D901E9070
:101630001AA800F041FF18A8007A01287ED118A846
:10164000407A00287AD01B9800785A2810D11B982D
:101650004078A528FAD11B98092381785A25A52618
:10166000DB067F48012904D0022968D0042967D00D
:101670009CE01B997D270979FF00012902D00229EE
:1016800025D125E01B98C078401EC5B2332D01D36B
:10169000172124E000F082F9642001F0DFF900F066
:1016A0005DFA1B9900972B4601AA6E48491DFFF76A
:1016B0008DFA00F047FA002401AE06E0325D2121E8
:1016C00069A000F01FFF641CE4B2AC42F6D378E0DE
:1016D0001B99C978491ECCB2332C04D32B217248F4
:1016E00000F010FF6DE01B994979FF292BD0FE29EE
:1016F00036D0FD2942D000F051F9642001F0AEF956
:1017000000F02CFA1B990097234601AA5548491D61
:10171000FFF75CFA00F016FA18A805744674012168
:101720008174611CC174022101756846017918A891
:1017300041756846417918A8817502E047E02BE0C1
:101740007AE0611D88E01B988079012802D000288A
:1017500002D019E0012200E00022012118460AE02F
:101760001B998979012902D0002902D00CE00122BD
:1017700000E000220121FEF71CFE05E01B9989799B
:10178000012904D0002904D0611D1B9865E00122C5
:1017900000E000228021EEE71B990979012918D089
:1017A000022927D0032930D0042939D03FA000F0E6
:1017B000A9FE18A8417A1B9800F06CFE3BA000F02F
:1017C000A1FE18A8427A28213B4800F077F821B002
:1017D000F0BD1B984079FF2804D00128F1D10022E8
:1017E000012125E00122FBE7FEF7E3FD18A8417A7D
:1017F0001B9832E01B994979FF2904D00129E0D1D7
:1018000000220121F0E70122FBE71B994979FF291A
:1018100004D00129D5D100228021E5E70122FBE790
:101820001B984079FF2805D00128CAD100228021C9
:101830001846D9E70122FAE70220FFF79DFE18A912
:101840000D744E7404228A740322CA7406220A7527
:10185000020A4A75887507211CA800F01BFEB0E734
:10186000000400484400002046696C653A202E2E92
:101870005C436F72655C5372635C6C6F775F636F20
:101880006D70757465722E632C204C696E653A20FC
:10189000253035643A205265766569766520646145
:1018A00074612025780D0A002C2B00082E2E2E2E78
:1018B0002E2E2E2E2E0A0D001C000020F8B54718E3
:1018C000054600264C1E1046203FFEF70DFC0CE09E
:1018D0002B78002004E02A1852782A54401CC0B209
:1018E000A042F8DB761CFB77F6B2B142F0D8F8BD27
:1018F000F0B587B014216846FEF754FC25484269CC
:10190000012189050A43426142690A400592426900
:1019100049110A43426142690A40059242694900FD
:101920000A434261406909270840FF0605900122E9
:1019300020213846FEF73DFD002201213846FEF702
:1019400038FD0122160331461348FEF732FD00220E
:1019500081211148FEF72DFD212001240025694633
:1019600031C1694638460395FEF74CFC8120694633
:1019700031C1694608480395FEF744FC03200390F3
:1019800001946946009602940348FEF73BFC07B0B9
:10199000F0BD0000001002400004004810B5144CD7
:1019A00012482060FF2005306060002007210902F6
:1019B000A060E1602061012161614902A1612062B2
:1019C00010216062E161A06207212063E16260632F
:1019D0002046FFF753F8002801D0FEF711FC2068DD
:1019E000016840221143016010BD00000038004032
:1019F0004400002030B58FB01C2108A8FEF7D2FBB0
:101A000020216846FEF7CEFB244D234828600024A1
:101A10002720AC6068602C616C616320AC61E86079
:101A20002846FFF722FA002801D0FEF7E9FB1B4801
:101A3000FFF7D2FA002801D0FEF7E2FB3020089031
:101A400014200E9409900A940B940C940D94002287
:101A500008A91248FFF798FA002801D0FEF7D0FB3A
:101A60002868816908221143816150200390500247
:101A700004900094400002940590019469460794F4
:101A80000648FFF7C3F9002801D0FEF7B9FB034869
:101A9000FFF740FA0FB030BD00440140A80000201D
:101AA00010B5134C11482060E12040026060002016
:101AB000A060E0600C2120616161A0610121C90387
:101AC0002062E16160622046FFF7ABFA002801D096
:101AD000FEF796FB20680168202211430160206810
:101AE000016810221143016010BD00000038014060
:101AF000F0000020FEE7704700B585B001204002ED
:101B0000009000200190012002900320039069467C
:101B10000248FEF777FB05B000BD00000004004856
:101B200000B585B001204002009001200190029094
:101B30000320039069460248FEF764FB05B000BD30
:101B40000004004810B5012211030348FEF731FCE0
:101B50000A2000F083FF10BD0004004870B5012288
:101B6000084D140321462846FEF723FC0A2000F006
:101B700075FF002221462846FEF71BFC0A2000F0D4
:101B80006DFF70BD00040048F8B50F460B461546C2
:101B90000092032104460022C90200F01BF820260F
:101BA000002812D13B46002280212046009500F0FB
:101BB0007DF8002809D103213B4600224902204636
:101BC000009500F007F8002803D0206E304320660F
:101BD0000320F8BDFFB585B00E46044600206946D7
:101BE0000E9D17460871FEF7EBFB411B0898451A3E
:101BF000FEF7E6FB0390206823210C3002902A4870
:101C000000684843000D684346E0032040028642D6
:101C100006D1002F04D1029801786846017100793D
:101C20000898401C39D0FEF7CBFB0399401AA84214
:101C300005D2002D03D0009800282BD02BE020687F
:101C40004168E022914341606068C11FFD390CD1B9
:101C50000121A068C903884202D04911884204D1F9
:101C6000206801684022914301600120A16A40037D
:101C7000814207D121680A6882430A6021680A68A4
:101C800002430A600120403460770020207703205F
:101C900009B0F0BD0025401E0090206880683040EB
:101CA000B842B2D10020F3E714000020FFB581B0A4
:101CB0001E4604460A9DFEF783FB401B351AFEF7BD
:101CC0007FFB0746264800684001000D684339E065
:101CD000701C38D0FEF774FBC01BA84205D2002D43
:101CE00003D0009800282BD02BE020684168E02228
:101CF000914341606068C11FFD390CD10121A0688A
:101D0000C903884202D04911884204D12068016881
:101D10004022914301600120A16A4003814207D122
:101D200021680A6882430A6021680A6802430A60DF
:101D300001204034607700202077032005B0F0BDFB
:101D40000025401E0090206881680298884305D0D5
:101D5000002103988142BBD10020EFE70121F8E781
:101D600014000020704710B5FEF730FB10BD70B5B1
:101D700094B030216846FEF715FA002401250E9430
:101D80000D940F941094280413940C9412940095BD
:101D900002260195099011940A9408960B946846BE
:101DA000FEF7A8FC002801D072B6FEE707200C90D1
:101DB0000E9401210D960F940CA8FEF7D9FB002874
:101DC00001D072B6FEE710A810951294FEF75CFBE6
:101DD000002801D072B6FEE714B070BD7047000055
:101DE000F0B502681A4B1B4C984201D0A04203D1B7
:101DF0007025AA434D682A43174D184E184F984234
:101E00000AD0A04208D0174CA04205D0A84203D067
:101E1000B04201D0B84205D11446032212029443C5
:101E2000CA6822438024A2434C69224302608A6824
:101E3000C2620A688262984205D0A84203D0B042CA
:101E400001D0B84201D10969016301214161F0BDAE
:101E5000002C0140000400400040014000440140CB
:101E60000048014000200040F0B5026A52085200CC
:101E70000262056A436882697024A24392080C6872
:101E800092001443022295438A68164E2A43144D49
:101E9000A84207D0B04205D0134FB84202D0134F2A
:101EA000B84206D10827BA43CF68174304229743A4
:101EB0003A46A84207D0B04205D00B4DA84202D006
:101EC0000A4DA84206D103252D02AB434D691D439F
:101ED0008B692B4343608461496841630262F0BDB2
:101EE000002C0140004001400044014000480140F6
:101EF00070B5026A10239A430262056A42688369D8
:101F000073242402A3430C6824021C4320239D4312
:101F10008B681B012B43124DA84208D11D46CB688C
:101F20008026B5431B012B434025AB4308E00D4DF4
:101F3000A84205D00C4DA84202D00C4DA84208D1B1
:101F40000325AD02AA434D69AD0015438A6992008D
:101F50002A434260846149688163036270BD000066
:101F6000002C014000400140004401400048014075
:101F700070B5026AFF2301339A430262056A43681F
:101F8000C2697024A24392080C6892001443012293
:101F9000520295438A6812022A43124DA84208D180
:101FA0001546CA68C614B54312022A430515AA434A
:101FB00008E00D4DA84205D00C4DA84202D00C4DB2
:101FC000A84208D103252D03AB434D692D011D43C4
:101FD0008B691B012B434360C4614968C163026282
:101FE00070BD0000002C0140004001400044014051
:101FF0000048014030B5026A01231B039A43026284
:10200000046A4268C36973252D02AB430D682D0233
:102010001D4301235B039C438B681B0323430C4C30
:10202000A04208D00B4CA04205D00B4CA04202D0DD
:102030000A4CA04205D10124A403A2434C69A40187
:1020400022434260C56149680164036230BD0000FB
:10205000002C014000400140004401400048014084
:1020600010B5818CC90707D001684A6801235B0459
:102070009A43836A1A434A60818C890707D50168AD
:102080004A6801231B049A43C36A1A434A60818C3D
:10209000490707D501684A6801239B049A43036BEB
:1020A0001A434A60818C090707D501684A680123F1
:1020B000DB039A43436B1A434A60818CC90607D5F8
:1020C0000268916801231B039943836B1943916054
:1020D000818C890607D501688A6801235B039A43CE
:1020E000C36B1A438A60818C490612D503685A680B
:1020F00001210905046C8A4322435A60026C8A421A
:1021000007D10268516803235B059943436C194367
:102110005160818C090607D501684A680123DB04F8
:10212000806C9A4302434A6010BD0000FEB507462A
:102130000025803704467D60FEF742F90190206853
:102140000068264600076036002819DA2748009004
:102150000121002249052046019B00F011F90028C9
:102160000ED0EFF31080012181F3108821680A68F6
:1021700080239A430A6080F310882020E06729E0DA
:1021800020680068400728D51848009001210022E7
:1021900089052046019B00F0F3F800281DD0EFF3DD
:1021A0001080012181F3108821680A68FF23213300
:1021B0009A430A6080F31088EFF31080012181F3C5
:1021C000108821688A68520852008A6080F310885B
:1021D0002020386035760320FEBD2020E06738607F
:1021E0002566656635760020FEBD0000FFFFFF0115
:1021F00010B5EFF31081012282F310880268136892
:10220000FF242134A343136081F31088EFF310817E
:10221000012282F31088026893685B085B00936078
:1022200081F31088016E01290BD1EFF31081012297
:1022300082F31088026813681024A343136081F3AB
:102240001088202280210A5000210166816610BD7D
:1022500070B5044680682169E26908436169002518
:1022600011432268084311683F4B19400143116034
:1022700021684868032212039043E26810434860D3
:10228000A169206A084321688A680B231B029A43CC
:1022900002438A6035492068884210D13448006B77
:1022A0008007800F0ED0012805D0022805D0032812
:1022B0000AD1022109E0042107E0082105E02D49A7
:1022C000884201D1002100E010210120E369C00310
:1022D000294A2A4E834222D1002906D0022907D05A
:1022E000042907D0082935D108E0FEF7C5F903E035
:1022F000104603E0FEF7D0F9002830D061684000B6
:102300004A088018FDF7F0FE01461039B14221D885
:102310001A49491C01400007400F08431DE00029ED
:1023200006D0022907D0042907D0082912D108E0D5
:10233000FEF7A2F903E0104603E0FEF7ADF900282E
:102340000DD061684A081018FDF7CEFE014610391D
:10235000B14201D9012502E080B22168C8600020A5
:10236000A066E066284670BDF369FFFF00380140B3
:10237000001002400044004000127A00EFFF00000D
:10238000FFB5064681B080360546044660350A9F93
:102390002EE0781C2CD0FEF713F80499401AB842AE
:1023A00014D8002F12D020680168490720D5C169D0
:1023B000C94309070CD4082707622046FFF718FF16
:1023C000776000202876012005B0F0BD0320FBE7F0
:1023D000C069C04300050BD401202168C002086217
:1023E0002046FFF705FF2020706000202876EDE7EB
:1023F0002068C1690298884305D000210398814272
:10240000C7D00020E0E70121F8E7000038B500253B
:1024100068461C4C05702068C069C04380061CD407
:102420007D23DB00012269462046FEF767FE164841
:102430000178C82909D26A461378144A5354491CB2
:10244000C9B2017013785A2B0FD0057028210F489C
:10245000FDF7A8FE2168202008622068C169C943F1
:10246000C90601D41021016238BD5078A528F1D1E8
:102470000429EFD3D078001D8842EBD8044901200D
:102480000870E7E7F0000020040000201C00002096
:102490000500002010B5074A1268D369DB435B06CC
:1024A000FBD40A467D230146DB000248FEF7A0FE6E
:1024B00010BD0000F00000207CB50E4A0E4C06CA8C
:1024C0000192009121786D460C4B29701A786A7040
:1024D00001290BD1110009D009496E46CD78291D7B
:1024E0007170511B091F1970002121700099019A08
:1024F00006C07CBDEC2A0008050000200400002076
:102500001C0000200FB410B503A9044B044A029824
:1025100000F052F810BC08BC04B01847912A00081B
:1025200018000020F8B5040C8BB2264682B25E4338
:102530000D0C1046370C58433604801900217941A0
:1025400016466E43370C36048019794126466E4391
:102550008919F8BD8307FF22DB0E9A408907090E0F
:102560009940002808DB830809489B001B1818685D
:1025700090430843186070470007000F083883082D
:1025800004489B001B18D86990430843D8617047E2
:1025900000E400E000ED00E002E008C8121F08C1FE
:1025A000002AFAD170477047002001E001C1121FD4
:1025B000002AFBD170470000FFB591B00F460546D9
:1025C000002606E025280AD0149A139990476D1C1E
:1025D000761C28780028F5D1304615B0F0BD0024CF
:1025E00000940121F34A029400E004436D1C2B780F
:1025F0000846203B98401042F7D128782A280ED070
:102600000222287801463039092915D800990A2371
:1026100059433039401814436D1C0090F1E701CF45
:102620000090002805DA012040030443009840424E
:102630000090022004436D1C28782E2815D1042018
:10264000044368786D1C2A280AD101CF6D1C0290C2
:102650000BE002990A225143303940186D1C029058
:102660002878014630390929F3D928786C2810D008
:1026700006DC4C281AD068280ED06A2817D104E04E
:10268000742813D07A2812D110E0012040050443A9
:102690000CE00121090501E0032109050C436978DB
:1026A000814203D10120000524186D1C6D1C28787F
:1026B0006E281ED00CDC632831D004DC00288BD0BF
:1026C000582811D1B2E064287BD069280CD178E079
:1026D00073282DD004DC6F2870D0702804D1A7E0B7
:1026E00075286CD078286BD0149A13999047761C73
:1026F00062E06002400F022807D003280AD00428B5
:1027000038680AD006603F1D56E03868F117066049
:102710004160F8E738680680F5E70670F3E7387837
:10272000694608740020487404A80390012003E05F
:10273000386803900020C0433F1D61070FD500217A
:1027400001E00199491C029A0191914213DA8142F8
:10275000F7DB019A0399895C0029F2D10BE0002193
:1027600001E00199491C01918142FADB019A039928
:10277000895C0029F5D101990098139A401A0090BC
:102780002146149B00F03CF901998019461807E096
:10279000039803990078491C0391149A1399904760
:1027A0000198401E0190401CF2D12146149B139ABF
:1027B000009800F015F986196D1C0AE741E033E036
:1027C00034E00A200021049005916002410F0229A3
:1027D00005D001CFC2179446032905D007E0FF1D9D
:1027E000FF08FF0003CF06E000B2C2179446042999
:1027F00002D140B2C1178C4600226146944506DAE8
:102800000A460021404291418C462D2102E02105DB
:1028100004D52B216A461176012103E0E10701D09E
:102820002021F7E7019155E00A200BE0102009E094
:1028300010200490002104200443082005910290F8
:1028400003E008200021059104906002410F022955
:1028500005D001CF00229446032906D006E0FF1DD3
:10286000FF08FF0003CF8C4603E080B2042900D1AB
:10287000C0B20021019121072CD52978039170293C
:1028800006D0049A1021059B4A401A4305D00EE059
:1028900040216A461176012108E06146014306D0D5
:1028A00030216A4611760399517602210191049AEA
:1028B0000821059B4A401A430CD16146014301D1CE
:1028C000610707D530216A461176012101910299ED
:1028D000491E02912978582904D037A103910FA9E4
:1028E0000F910DE039A1F9E76146059B049AFDF7C8
:1028F00011FC039B8C469B5C0F9A521E0F92137027
:1029000061460143F0D10F9807A9081A20300390BF
:10291000600704D5012000048443029801E00120EF
:1029200002900399884201DD401A00E0002041181E
:102930000290019809180098401A0090E00306D40C
:102940002146149B139A009800F05AF8861900202B
:10295000049008E006A9085C149A1399904704981B
:10296000401C761C049001998842F3DBE0030CD5EF
:102970002146149B139A009800F042F8861904E04F
:10298000149A302013999047761C0299481E0290A1
:102990000029F5DC08E00F980F990078491C0F9189
:1029A000149A13999047761C0399481E03900029A6
:1029B000F1DCFAE60928010030313233343536379C
:1029C000383961626364656600000000303132337B
:1029D000343536373839414243444546000000001B
:1029E000F8B5044600251E461746880404D405E0C1
:1029F00039462020B0476D1C641EF9D52846F8BD25
:102A0000FFB50446002581B01E46C80301D5302716
:102A100000E02027880404D505E038460399B04734
:102A20006D1C641EF9D5284605B0F0BD10B50446EE
:102A30000420FEF7C7F90148046010BD0000002023
:102A400070B500247D260546F60003E0304600F010
:102A500005F8641CAC42F9D370BD000070B50A4C97
:102A6000002365690949A26909684843A16991423F
:102A7000FCD0914201D2521A01E06E1AB218D3185A
:102A80000A468342F2D370BD00E000E0000000205F
:102A900038B504466846047002230122694602489C
:102AA000FEF7A6FB204638BDF0000020FDF796FC9F
:102AB000FFF75DF9FEF71CFFFEF770FF2820FFF718
:102AC000B5FFFEF797FFFEF7EBFFFEF717FC64205C
:102AD000FFF7C4FFFEF742FD092000222021C006B7
:102AE000FDF767FCFEF79EFDFCE70000000000001C
:102AF0001C00002002030405060708090A0B0C0D40
:102B00000E0F10100102030405060708090A0B0C3A
:102B10000D0E0F1000000000000000000102030471
:102B200006070809000000000102030446696C65FD
:102B30003A202E2E5C436F72655C5372635C6C6F3F
:102B4000775F636F6D70757465722E632C204C69AE
:102B50006E653A20253035643A20BFC9B7A2CBCD87
:102B6000D7D6BDDAB3A4B6C8D7EEB4F3CEAA353003
:102B7000A3ACB3ACB3A4C7EBD6D8D0C2B7A2CBCD6D
:102B80000D0A0000A42B0008000000201C0000001B
:102B900098250008C02B00081C0000205C050000E0
:102BA000A82500080000000000000000010000004F
:102BB000040000000000000000127A000000000085
:04000005080000B53A
:00000001FF
